:020000040800F2
:10000000700600203502000861140008910C0008F9
:100010001D0D00082B040008E51600080000000074
:10002000000000000000000000000000551500085E
:100030002D04000800000000631400085715000894
:100040004F0200084F0200084F0200084F0200084C
:100050004F0200084F0200084F0200084F0200083C
:100060004F0200084F0200084F0200084F0200082C
:100070004F0200084F0200084F0200084F0200081C
:100080004F0200084F0200084F0200080000000065
:100090000000000000000000000000004F02000807
:1000A0004F0200084F0200084F0200084F020008EC
:1000B0004F0200084F0200084F0200084F020008DC
:1000C0004F0200084F0200084F0200084F020008CC
:1000D0004F0200084F0200084F0200080000000015
:1000E0004F0200084F0200084F0200080000000005
:1000F0000000000000000000000000004F020008A7
:10010000000000004F0200084F0200084F020008E4
:1001100000000000000000000000000000000000DF
:100120004F0200084F0200084F0200084F0200086B
:100130004F02000800000000000000000000000066
:100140000000000000000000000000004F02000856
:100150004F0200084F0200084F0200084F0200083B
:100160004F0200084F0200080000000000000000DD
:10017000000000000000000000000000000000007F
:10018000000000004F020008000000000000000016
:100190004F02000800F002F800F03CF80AA090E8D6
:1001A000000C82448344AAF10107DA4501D100F032
:1001B00031F8AFF2090EBAE80F0013F0010F18BFC3
:1001C000FB1A43F0010318479C150000BC15000002
:1001D000103A24BF78C878C1FAD8520724BF30C873
:1001E00030C144BF04680C60704700000023002445
:1001F00000250026103A28BF78C1FBD8520728BF37
:1002000030C148BF0B6070471FB501F09DFA1FBD9C
:1002100010B510BD00F0CFF81146FFF7F5FF01F063
:1002200073FA00F0EDF803B4FFF7F2FF03BC00F03F
:10023000F5F800000948804709480047FEE7FEE757
:10024000FEE7FEE7FEE7FEE7FEE7FEE7FEE7FEE786
:1002500004480549054A064B70470000DD150008B3
:100260009501000870000020700600207002002038
:100270007002002053EA020C00F069802DE9F04B77
:100280004FF00006002B1FBFB3FA83F503FA05F405
:1002900024FA05F65E4012BF1643B2FA82F502FA5E
:1002A00005F4C5F120051EBF22FA05FC44EA0C0442
:1002B000203556EA044C4FEA144418BF641C4FF032
:1002C00000084FF00009904271EB030C39D300296C
:1002D00019BFB1FA81F701FA07F6B0FA80F700FA10
:1002E00007F6C7F120071EBF20FA07FC46EA0C06F6
:1002F0002037B6FBF4FCA7EB0507103F07F01F0BF8
:10030000CBF120060CFA0BFB2CFA06F644BFB346E1
:100310000026202FA4BF5E464FF0000B5BEA060CC0
:1003200008BF4FF0010B19EB0B09ABFB027C48EB4C
:100330000608C01B06FB02CC0BFB03CC71EB0C01C7
:10034000C1E70B46024641464846BDE8F08B13B56F
:100350004FF000004FF00001AFF30080BDE81C40FB
:1003600070474FF0000200B5134694469646203978
:1003700022BFA0E80C50A0E80C50B1F12001BFF45E
:10038000F7AF090728BFA0E80C5048BF0CC05DF8C4
:1003900004EB890028BF40F8042B08BF704748BF12
:1003A00020F8022B11F0804F18BF00F8012B704786
:1003B000704770477047754600F02CF8AE46050050
:1003C0006946534620F00700854618B020B5FFF770
:1003D0003FFFBDE820404FF000064FF000074FF010
:1003E00000084FF0000B21F00701AC46ACE8C00953
:1003F000ACE8C009ACE8C009ACE8C0098D4670475C
:1004000010B50446AFF300802046BDE81040FFF76A
:100410000ABF000000487047100000200149182062
:10042000ABBEFEE7260002007047FEE77047000003
:1004300070B5044600F004F90546601C02D004487B
:100440000078044400F0FCF8401BA042FAD370BDD1
:10045000000000202DE9F84FDFF8B8A100220124A8
:100460000AF1040B03254FF00F090BF1040E00BF36
:100470000B6804FA02F63340B34273D10F7907F0E8
:100480000307012F01D0022F16D187684FEA4208D7
:1004900005FA08FC27EA0C07D1F80CC00CFA08FC96
:1004A0004CEA070CC0F808C04768B7430E79C6F39A
:1004B000001696403E4346600E79F643B6070DD0CF
:1004C000C768560005FA06FC27EA0C07D1F808C0F1
:1004D0000CFA06FC4CEA070CC0F80CC00E7906F0CA
:1004E0000306022E10D1D60800EB8608D8F820604B
:1004F00057074FEAD76C09FA0CF7BE430F6907FAA2
:100500000CF73743C8F8207006684FEA420C05FA2A
:100510000CF7BE430F7907F0030707FA0CF73743D0
:1005200007604E6816F4403F6DD03B4E376847F485
:1005300080473760366822F0030706F4804600964D
:10054000364E07EB060CDCF8086897073F0F09FAF0
:1005500007F826EA0806DFF8C880404503D14FF0C7
:1005600000081EE04FE0DFF8BC80404502D14FF0AC
:10057000010816E0DFF8B080404502D14FF00208D4
:100580000FE0DFF8A880404502D14FF0030808E0F3
:10059000DFF89C80404502D14FF0040801E04FF0A5
:1005A000070808FA07F848EA0608CCF80888DAF8D5
:1005B00000605746D1F804C09E435FEACC3C00D5AA
:1005C0001E433E60DBF800605F46D1F804C09E43E6
:1005D0005FEA8C3C00D51E433E60DEF80060774643
:1005E000D1F804C09E435FEACC2C00D51E433E6088
:1005F000084F0C373E68D1F804C09E435FEA8C2C4C
:1006000000D51E433E60521C102AFFF431AFBDE8F6
:10061000F88F0000003C01404438024000300140A7
:10062000000002400004024000080240000C0240AA
:10063000001002400AB1816170470904FBE7000025
:10064000014880687047000000000020024881686F
:100650000278114481607047000000200B4810B5FB
:10066000016841F400710160016841F4806101603A
:10067000016841F480710160032000F061F80F20EF
:1006800000F006F800F024F8002010BD003C024005
:1006900070B50D4D04464FF47A712878B1FBF0F037
:1006A0000A490968B1FBF0F000F0DEFA48B9102CF5
:1006B00007D200222146501E00F022F800206C6074
:1006C00070BD012070BD0000000000200C00002063
:1006D0000A4808B5016841F480410160006800F4EF
:1006E000804000900548001F016841F08051016082
:1006F000006800F08050009008BD000044380240BF
:10070000F0B40E4B1B680C46C3F30223C3F107057C
:10071000042D00D90425191D072901D2002300E06A
:10072000DB1E012606FA05F1491E214099409E4034
:10073000761E16403143F0BC00F0D5BF0CED00E052
:10074000064900F0070208684FF6FF03184040EA28
:100750000220034A10430860704700000CED00E0DF
:100760000000FA052DE9F0470E46050065D0DFF8D8
:100770001481D8F80000F7B200F00700B04207D2A9
:1007800088F80070D8F8000000F00700B04254D19B
:1007900028683D4C810712D5400703D5206840F4F6
:1007A000E05020602878000703D5206840F46040BE
:1007B00020602068A96820F0F000084320602878B5
:1007C000C0072DD0304968680839012812D00228A6
:1007D00013D0032811D00968890700292DDA216870
:1007E00021F0030101432160FFF72AFF814641F216
:1007F000883A0EE009688903EFE709688901ECE7A8
:10080000FFF71EFFA0EB0901514502D90320BDE807
:10081000F0872068696800F00C00B0EB810FEFD121
:10082000D8F80010404601F00701B14207D907701F
:10083000006800F00700B04201D00120E7E7287807
:10084000400705D52068E96820F4E050084320609F
:100850002878000706D52068296920F4604040EA1E
:10086000C100206000F018F82168084AC1F30311A4
:10087000515CC8400649086006480068FFF708FF59
:100880000020C4E7003C024008380240521700082C
:100890000C00002004000020154810B5006810F07E
:1008A0000C02144813D01449042A0FD0082A0ED180
:1008B0000F4C241F2268236802F03F025B0207D519
:1008C0002068C0F38810A0FB010106E0084610BDB7
:1008D0002168C1F38811A1FB00010023FFF7CAFCC6
:1008E0002168C1F30141491C4900B0FBF1F010BD82
:1008F000083802400024F40040787D012DE9F84FCB
:1009000004006ED02078DFF84C93C007A9F10405ED
:100910004AD009F104000168C1F38101012908D01E
:100920000068C0F3810002280AD1D9F80000400213
:1009300006D52868800337D560680028E1D033E009
:100940006068B0F5803F10D0B0F5A02F286810D0B7
:1009500020F480302860286820F4802028606068B7
:10096000A8B1FFF76DFE06460DE0286840F4803020
:10097000F4E740F480202860F7E700BFFFF760FE4F
:10098000801B642873D828688003F7D50CE0FFF734
:1009900057FE064605E000BFFFF752FE801B6428A5
:1009A000F0D828688003F7D42078DFF8AC8280077D
:1009B0004FF0000A3ED5A748001D016811F00C0F4A
:1009C00008D00068C0F3810002280BD1D9F80000DC
:1009D000400207D42868800716D5E068012800D1B6
:1009E00012E033E1E068B8B10120C8F80000FFF779
:1009F00027FE064605E000BFFFF722FE801B022807
:100A0000C0D828688007F7D52868216920F0F80049
:100A100040EAC10028600DE0C8F800A0FFF710FE12
:100A2000064604E0FFF70CFE801B02281FD828684A
:100A30008007F7D42078000722D5864F8748616960
:100A4000703771B101210160FFF7FAFD064604E03D
:100A5000FFF7F6FD801B022809D838688007F7D514
:100A60000EE0C0F800A0FFF7EBFD064605E082E0CF
:100A7000FFF7E6FD801B02287DD838688007F7D491
:100A80002078400768D5DFF8CCB100270BF13C0B8C
:100A9000DBF80000C0000BD4DBF8001041F08051FF
:100AA000CBF80010DBF80000012700F08050009028
:100AB0006B4E3068C00510D4306840F480703060F0
:100AC000FFF7BEFD009005E0FFF7BAFD0099401A60
:100AD000022850D83068C005F6D55E4EA0686C3646
:100AE00001280FD00528306810D020F001003060B8
:100AF000306820F004003060A068B8B1FFF7A0FDB6
:100B000000900FE0306840F00100F4E740F004008E
:100B10003060F7E7FFF794FD0099411A41F2883001
:100B2000814266D830688007F4D50EE0FFF788FD73
:100B3000009007E0FFF784FD0099411A41F28830E8
:100B4000814256D830688007F4D42FB1DBF800100A
:100B500021F08051CBF80010A069C8B33D49091DB0
:100B60000968C1F3810102294AD00228504607D002
:100B7000C8F8600000E03CE0FFF762FD04463BE09F
:100B80004746C8F86000FFF75BFD064605E000BF7A
:100B9000FFF756FD801B02282BD828688001F7D468
:100BA000D4E907010843A16A2E4A490802EB014132
:100BB000626A41EA8211084394F82C1040EA01610C
:100BC000C9F8001001203866FFF73AFD044606E038
:100BD0003EE000BFFFF734FD001B022809D828685B
:100BE0008001F7D534E000BFFFF72AFD001B022883
:100BF00002D90320BDE8F88F28688001F4D427E0EB
:100C00000128F7D0D9F80000E26900F48001914290
:100C10001CD1226A00F03F01914217D147F6C07102
:100C2000626A0140B1EB821F10D1A26A4FF0FF331C
:100C300000F4403103EB5202B1EB024F06D194F8BD
:100C40002C1000F07060B0EB016F01D00120D1E7F3
:100C50000020CFE70438024000004742800E4742A0
:100C6000007000400000FFFF10B5401EB0F1807F13
:100C700001D3012010BD4FF0E02460610F21601707
:100C800000F031FD0020A06107202061002010BD90
:100C9000FEE700002DE9F04186B014216846FFF719
:100CA00060FB1B480024016841F0100101600168ED
:100CB00001F010010591016841F008010160006830
:100CC000144F00F0080005902246FF213846FFF738
:100CD000B1FCDFF844804FF6FF76002231464046F3
:100CE000FFF7A8FCFF2000900125CDE901546946DB
:100CF00038460394FFF7AEFB0096CDE901546946F0
:100D000040460394FFF7A6FB06B0BDE8F081000063
:100D10003038024000100240000C0240FEE70000A4
:100D200070B500F063FCFE4C012211462046FFF72F
:100D300081FC6420FFF77CFB002201212046FFF7A5
:100D400079FC6420FFF774FB012211462046FFF76F
:100D500071FC012202212046FFF76CFC6420FFF7A2
:100D600067FB002202212046FFF764FC6420FFF7A6
:100D70005FFB012202212046FFF75CFC01220421D7
:100D80002046FFF757FC6420FFF752FB00220421A6
:100D90002046FFF74FFC6420FFF74AFB01220421A5
:100DA0002046FFF747FC012208212046FFF742FCBE
:100DB0006420FFF73DFB002208212046FFF73AFCA4
:100DC0006420FFF735FB012208212046FFF732FCA3
:100DD000012210212046FFF72DFC6420FFF728FB9D
:100DE000002210212046FFF725FC6420FFF720FB9E
:100DF000012210212046FFF71DFC01222021204660
:100E0000FFF718FC6420FFF713FB00222021204687
:100E1000FFF710FC6420FFF70BFB01222021204686
:100E2000FFF708FC012240212046FFF703FC642065
:100E3000FFF7FEFA002240212046FFF7FBFB64206B
:100E4000FFF7F6FA012240212046FFF7F3FB0122CB
:100E500080212046FFF7EEFB6420FFF7E9FA00222D
:100E600080212046FFF7E6FB6420FFF7E1FA01222C
:100E700080212046FFF7DEFB01221502294620468D
:100E8000FFF7D8FB6420FFF7D3FA0022294620465B
:100E9000FFF7D0FB6420FFF7CBFA0122294620465A
:100EA000FFF7C8FB0122550229462046FFF7C2FB87
:100EB0006420FFF7BDFA002229462046FFF7BAFB5F
:100EC0006420FFF7B5FA012229462046FFF7B2FB5E
:100ED0000122950229462046FFF7ACFB6420FFF76C
:100EE000A7FA002229462046FFF7A4FB6420FFF75B
:100EF0009FFA012229462046FFF79CFB0122D502DA
:100F000029462046FFF796FB6420FFF791FA00225E
:100F100029462046FFF78EFB6420FFF789FA01225D
:100F200029462046FFF786FB012215032946204665
:100F3000FFF780FB6420FFF77BFA0022294620465A
:100F4000FFF778FB6420FFF773FA01222946204659
:100F5000FFF770FB0122550329462046FFF76AFB85
:100F60006420FFF765FA002229462046FFF762FB5E
:100F70006420FFF75DFA012229462046FFF75AFB5D
:100F80000122950329462046FFF754FB6420FFF712
:100F90004FFA002229462046FFF74CFB6420FFF75A
:100FA00047FA012229462046FFF744FB0122D503D8
:100FB00029462046FFF73EFB6420FFF739FA00225E
:100FC00029462046FFF736FB6420FFF731FA01225D
:100FD00029462046FFF72EFB524C0122114620469F
:100FE000FFF728FB6420FFF723FA002201212046A7
:100FF000FFF720FB6420FFF71BFA01221146204671
:10100000FFF718FB012202212046FFF713FB6420A3
:10101000FFF70EFA002202212046FFF70BFB6420A7
:10102000FFF706FA012202212046FFF703FB012207
:1010300004212046FFF7FEFA6420FFF7F9F90022A9
:1010400004212046FFF7F6FA6420FFF7F1F90122A8
:1010500004212046FFF7EEFA012208212046FFF77F
:10106000E9FA6420FFF7E4F9002208212046FFF79F
:10107000E1FA6420FFF7DCF9012208212046FFF79E
:10108000D9FA012210212046FFF7D4FA6420FFF795
:10109000CFF9002210212046FFF7CCFA6420FFF799
:1010A000C7F9012210212046FFF7C4FA01222021AE
:1010B0002046FFF7BFFA6420FFF7BAF9002220218B
:1010C0002046FFF7B7FA6420FFF7B2F9012220218A
:1010D0002046FFF7AFFA00F0C5F96420FFF7A8F942
:1010E00000F084FA4FF4FA742046FFF7A1F900F0FB
:1010F000B9F92046FFF79CF900F078FA2046FFF78F
:1011000097F900F0AFF92046FFF792F900F06EFA78
:101110002046FFF78DF9BDE8704000F0A3B900004C
:10112000000C02400010024010B500F05FFA5A4C6B
:10113000002201212046FFF77DFA6420FFF778F9AD
:10114000012202212046FFF775FA6420FFF770F9AB
:10115000002204212046FFF76DFA6420FFF768F9AA
:10116000012208212046FFF765FA6420FFF760F9A5
:10117000002210212046FFF75DFA6420FFF758F99E
:10118000012220212046FFF755FA6420FFF750F98D
:10119000002240212046FFF74DFA6420FFF748F96E
:1011A000012280212046FFF745FA6420FFF740F92D
:1011B0000022A1152046FFF73DFA6420FFF738F919
:1011C000012251022046FFF735FA6420FFF730F97B
:1011D000002221152046FFF72DFA6420FFF728F999
:1011E0000122D1022046FFF725FA6420FFF720F9FB
:1011F0000022A1142046FFF71DFA6420FFF718F91A
:10120000012251032046FFF715FA6420FFF710F979
:1012100000224FF480412046FFF70CFA6420FFF7CC
:1012200007F90122D1032046FFF704FA6420FFF7F3
:10123000FFF81A4C002201212046FFF7FBF9642039
:10124000FFF7F6F8012202212046FFF7F3F96420A8
:10125000FFF7EEF8002204212046FFF7EBF96420A7
:10126000FFF7E6F8012208212046FFF7E3F96420A2
:10127000FFF7DEF8002210212046FFF7DBF964209B
:10128000FFF7D6F8012220212046FFF7D3F9BDE869
:1012900010406420FFF7CCB8000C02400010024060
:1012A00070B500F0A3F96C4C012211462046FFF7FF
:1012B000C1F94FF47A752846FFF7BAF800220121E8
:1012C0002046FFF7B7F92846FFF7B2F801220221BE
:1012D0002046FFF7AFF92846FFF7AAF800220221BF
:1012E0002046FFF7A7F92846FFF7A2F801220421BC
:1012F0002046FFF79FF92846FFF79AF800220421BD
:101300002046FFF797F92846FFF792F801220821B7
:101310002046FFF78FF96420FFF78AF800220821A2
:101320002046FFF787F9012210212046FFF782F9B6
:101330006420FFF77DF8002210212046FFF77AF99C
:10134000002220212046FFF775F96420FFF770F88E
:10135000002240212046FFF76DF96420FFF768F86E
:10136000012280212046FFF765F96420FFF760F82D
:10137000012211022046FFF75DF96420FFF758F8BB
:10138000012251022046FFF755F96420FFF750F87B
:10139000002221152046FFF74DF96420FFF748F899
:1013A0000022E1142046FFF745F96420FFF740F8DA
:1013B0000022A1142046FFF73DF96420FFF738F81A
:1013C000012251032046FFF735F96420FFF730F87A
:1013D000012291032046FFF72DF96420FFF728F83A
:1013E0000122D1032046FFF725F96420FFF720F8FA
:1013F0001A4C002201212046FFF71CF96420FFF758
:1014000017F8002202212046FFF714F96420FFF7A5
:101410000FF8002204212046FFF70CF96420FFF7A3
:1014200007F8012208212046FFF704F96420FEF79F
:10143000FFFF012210212046FFF7FCF86420FEF791
:10144000F7FF012220212046FFF7F4F8BDE87040A5
:101450006420FEF7EDBF0000000C024000100240C7
:10146000FEE7704710B5394C012211462046FFF7C0
:10147000E1F8012202212046FFF7DCF801220421D5
:101480002046FFF7D7F8012208212046FFF7D2F8BF
:10149000012210212046FFF7CDF80122202120460D
:1014A000FFF7C8F8012240212046FFF7C3F80122C8
:1014B00080212046FFF7BEF8012211022046FFF7E7
:1014C000B9F8012251022046FFF7B4F80122910237
:1014D0002046FFF7AFF80122D1022046FFF7AAF815
:1014E000012211032046FFF7A5F8012251032046EF
:1014F000FFF7A0F8012291032046FFF79BF8012295
:10150000D1032046FFF796F8114C012211462046E0
:10151000FFF790F8012202212046FFF78BF8012205
:1015200004212046FFF786F8012208212046FFF714
:1015300081F8012210212046FFF77CF82046012285
:10154000BDE810402021FFF775B80000000C0240F4
:10155000001002407047FFF779B8000010B592B054
:1015600030216846FEF7FDFE14210CA8FEF7F9FEB7
:1015700018480024016841F080510160006800F0C3
:10158000805011901448016821F4404141F4004119
:1015900001600068069400F4404011900220009021
:1015A00001200390102004906846FFF7A7F908B1C6
:1015B00072B6FEE70F20CDE90C040E940F940021C3
:1015C0000CA81094FFF7CEF8002801D072B6FEE701
:1015D00012B010BD4038024000700040024801685F
:1015E00041F470010160704788ED00E010B5FFF72D
:1015F00039FF3A4C002201212046FFF71BF8002258
:1016000002212046FFF716F8002204212046FFF7AA
:1016100011F8002208212046FFF70CF800221021C3
:101620002046FFF707F8002220212046FFF702F8A6
:10163000002240212046FEF7FDFF002280212046A7
:10164000FEF7F8FF0022A1152046FEF7F3FF002267
:1016500061152046FEF7EEFF002221152046FEF719
:10166000E9FF0022E1142046FEF7E4FF0022A11466
:101670002046FEF7DFFF00224FF400512046FEF720
:10168000D9FF00224FF480412046FEF7D3FF00220D
:101690004FF400412046FEF7CDFF114C00220121FE
:1016A0002046FEF7C7FF002202212046FEF7C2FFB8
:1016B000002204212046FEF7BDFF0022082120461B
:1016C000FEF7B8FF002210212046FEF7B3FF2046A8
:1016D0000022BDE810402021FEF7ACBF000C024004
:1016E00000100240FEE70907090E002804DB00F1A4
:1016F000E02080F80014704700F00F0000F1E020B7
:1017000080F8141D70470000FEF7A8FFFFF726FFC2
:10171000FFF7C0FA4FF47A745FEA6405FFF7A2FEA0
:101720002046FEF785FEFFF761FF2046FEF780FEAC
:10173000FFF7FAFC2846FEF77BFEFFF7F5FCFFF704
:10174000AFFDFFF7EDFAE9E74FF04070E1EE100A68
:1017500070470000000000000000010203040607BB
:101760000809000084170008000000201000000095
:10177000D001000894170008100000206006000047
:10178000EC01000801000000100000000000000053
:041790000024F4003D
:040000050800019559
:00000001FF
